:100000000C942A000C94B6020C94CB020C940D03B1
:100010000C940C060C94A1050C9447000C9447001A
:100020000C9447000C9447000C9419050C9484041C
:100030000C9447000C9447000C9447000C94470024
:100040000C9447000C9447000C9447000C94470014
:100050000C94470011241FBECFE5D8E0DEBFCDBF12
:1000600010E0A0E6B0E0EAE3FFE002C005900D92E8
:10007000AA36B107D9F720E0AAE6B0E001C01D9288
:10008000A739B207E1F70E94A3020C949B070C94D6
:1000900000008FB780688FBF86B1877F86B987B130
:1000A0008F71806487B986B1876286B980B78F7196
:1000B00080BF86B1806886B9089597B1987F892BF3
:1000C00087B986B1806486B9349BFECF84B195B17F
:1000D00008950E9446040E9464050E9449000E94FF
:1000E00061030E944F030E948C020E945D020E94E5
:1000F0006C020E947C028CE3809396006CE380E0AB
:1001000090E00E944A020E94730310926A000895D0
:100110000E9480040E949D050E9421040E94980272
:100120000E946D030E945B0380916A008823E1F3C3
:1001300008950E942E0480E090E00E945602809371
:10014000960064E670E080E090E00E9451040E9416
:100150007B0420918B0030E08091960090E0AC0110
:100160004550510924173507D4F468EE73E080E058
:1001700090E00E946F050E9499050E945B030E9417
:10018000670302C00E94D80380918B009091960073
:100190008917F0F590916A009130A1F308950596C2
:1001A00082179307A4F40E9492020E9455030E94B2
:1001B0006D0302C00E94D80380918B00909196003D
:1001C000981730F590916A009130A1F308950E943C
:1001D0009D050E945B030E946D030E94980202C06D
:1001E0000E94D80380918B00482F50E02091960008
:1001F00030E0B90165507109461757074CF02B5F85
:100200003F4F2417350724F090916A00913041F355
:10021000089568EE73E080E090E00E946F050E9410
:10022000990504C0809196000E94D80380916A00CD
:100230008230C1F30895BC0190E020E030E007C0B7
:10024000FB01E90FF11D4081240F311D9F5F9A30A2
:10025000B8F3ADECBCEC0E94810796958795969516
:100260008795969587950895442319F04130C9F1F3
:100270000895813091F028F08230D9F0833029F14F
:1002800008952AB381E090E002C0880F991F6A9513
:10029000E2F7809582238ABB089527B381E090E03E
:1002A00002C0880F991F6A95E2F78095822387BB69
:1002B000089524B381E090E002C0880F991F6A95E9
:1002C000E2F78095822384BB089521B381E090E01A
:1002D00002C0880F991F6A95E2F78095822381BB3F
:1002E0000895813089F028F08230C9F0833011F10F
:1002F00008952AB381E090E002C0880F991F6A95A3
:10030000E2F7822B8ABB089527B381E090E002C018
:10031000880F991F6A95E2F7822B87BB089524B353
:1003200081E090E002C0880F991F6A95E2F7822B66
:1003300084BB089521B381E090E002C0880F991F2B
:100340006A95E2F7822B81BB0895442319F041306E
:10035000C9F10895813091F028F08230D9F08330CE
:1003600029F108952BB381E090E002C0880F991F16
:100370006A95E2F7809582238BBB089528B381E0CC
:1003800090E002C0880F991F6A95E2F7809582235A
:1003900088BB089525B381E090E002C0880F991FC3
:1003A0006A95E2F78095822385BB089522B381E0A8
:1003B00090E002C0880F991F6A95E2F7809582232A
:1003C00082BB0895813089F028F08230C9F08330F3
:1003D00011F108952BB381E090E002C0880F991FBE
:1003E0006A95E2F7822B8BBB089528B381E090E0F9
:1003F00002C0880F991F6A95E2F7822B88BB089587
:1004000025B381E090E002C0880F991F6A95E2F75A
:10041000822B85BB089522B381E090E002C0880F53
:10042000991F6A95E2F7822B82BB0895813089F08B
:1004300028F08230C9F0833011F108952BB381E0A8
:1004400090E002C0880F991F6A95E2F782278BBB64
:10045000089528B381E090E002C0880F991F6A9543
:10046000E2F7822788BB089525B381E090E002C0BF
:10047000880F991F6A95E2F7822785BB089522B3FA
:1004800081E090E002C0880F991F6A95E2F7822709
:1004900082BB0895E199FECF6DBB8EBB9FBB8CB331
:1004A00084608CBB8CB382608CBB08958EBB9FBB79
:1004B0008CB381608CBB8DB308958FB780688FBF7C
:1004C0008BB780648BBF40E062E083E00E94340120
:1004D00085B7836085BF08958FB780688FBF8BB75E
:1004E00080688BBF40E063E083E00E94340185B701
:1004F000807F836085BF08958FB780688FBF8BB77B
:1005000080628BBF40E062E081E00E94340184B7EA
:100510008E7B816084BF089541E060E081E00E94AD
:100520003401089541E060E081E00E94A501089552
:1005300040E060E081E00E94A501089560E081E074
:100540000E94160208950E94690080916A0081301D
:1005500021F030F0823039F0F8CF0E949900F5CFC9
:100560000E948800F2CF0E940901EFCF1F920F92E4
:100570000FB60F9211248F939F9381E090916A00A0
:10058000911180E080936A009F918F910F900FBE30
:100590000F901F9018951F920F920FB60F92112473
:1005A0002F933F934F935F936F937F938F939F937B
:1005B000AF93BF93EF93FF9380916A008150823095
:1005C000D8F482E080936A00809196008B5F8093DC
:1005D00096008C3418F08BE480939600609196001E
:1005E00080E090E00E944A0268E873E180E090E0D9
:1005F0000E9451040E947B04FF91EF91BF91AF9143
:100600009F918F917F916F915F914F913F912F912A
:100610000F900FBE0F901F9018951F920F920FB65C
:100620000F9211242F933F934F935F936F937F9378
:100630008F939F93AF93BF93EF93FF9380916A0043
:1006400081508230D8F482E080936A0080919600D5
:10065000855080939600833218F483E2809396004D
:100660006091960080E090E00E944A0268E873E1A1
:1006700080E090E00E9451040E947B04FF91EF9182
:10068000BF91AF919F918F917F916F915F914F91AA
:100690003F912F910F900FBE0F901F90189541E042
:1006A00065E081E00E943401089541E065E081E069
:1006B0000E94A501089540E065E081E00E94A50147
:1006C000089541E064E081E00E943401089541E032
:1006D00064E081E00E94A501089540E064E081E0CB
:1006E0000E94A501089541E060E082E00E9434018B
:1006F00041E061E082E00E94340141E062E082E09A
:100700000E94340141E063E082E00E94340141E054
:1007100064E082E00E94340141E065E082E00E94F2
:10072000340141E066E082E00E94340141E061E092
:1007300083E00E94340141E060E083E00E943401E4
:1007400041E066E083E00E94340141E060E082E045
:100750000E94A50141E061E082E00E94A50141E024
:1007600062E082E00E94A50141E063E082E00E9435
:10077000A50141E064E082E00E94340141E065E0CF
:1007800082E00E94340141E066E082E00E94340190
:1007900041E061E083E00E94A50141E060E083E088
:1007A0000E94A50141E066E083E00E94A501089552
:1007B000CF9390916B00992309F441C0843608F0DF
:1007C00080E0EDEC8E9FE12D11249E2F969596955D
:1007D0009695990F292F220F220F920F891BCE2F4A
:1007E000C695C695C695E82FF0E0E05AFF4F808188
:1007F00085BB40E061E083E00E94A50141E060E04C
:1008000083E00E94A5018FE19EE40197F1F700C00B
:100810000000EC2FF0E0E05AFF4F808185BB41E003
:1008200061E083E00E94A50140E060E083E00E9477
:10083000A5018FE19EE40197F1F700C00000CF9180
:10084000089541E061E083E00E94A50141E060E09D
:1008500083E00E94A50110926B00089540E061E0E2
:1008600083E00E94A50140E060E083E00E94A501D2
:1008700081E080936B00089580916B00882319F0CC
:100880000E94210408950E942E0408958FB7806865
:100890008FBF89B78C7F816089BF83B7877B83BF18
:1008A00008950F931F939B01AC01A8EEB3E00E9443
:1008B00090070E94860620E030E040E85CE30E945A
:1008C000EC060E945706662339F0072F182F292FB0
:1008D00033270F5F1F4F04C0072F182F292F3327EF
:1008E00010938A000093890061956093860062BF2F
:1008F0001F910F91089583B7887F856083BF089506
:1009000083B7887F83BF08951F920F920FB60F920F
:1009100011242F933F934F935F936F937F938F9304
:100920009F93AF93BF93CF93DF93EF93FF93809108
:10093000790090917A00A0917B00B0917C000196A3
:10094000A11DB11D8093790090937A00A0937B0044
:10095000B0937C004091890050918A0060E070E083
:1009600084179507A607B70709F050C080916A0061
:10097000823021F481E080936A0038C08130B1F583
:10098000C09178008DECC89F812D112486958695A5
:100990008695880F982F990F990F890FC81BD0E063
:1009A00080E00E945D00BC0180E090E00E9486062D
:1009B00020E030E04AEF5EE30E94EC060E9457061A
:1009C000C457DF4F6883809178008F5F80937800F1
:1009D0008CE890E00E941B0180938B0064E670E03D
:1009E00080E090E00E9451040E947B04809184008A
:1009F0008F5F809384001092790010927A00109299
:100A00007B0010927C008091860082BFFF91EF9165
:100A1000DF91CF91BF91AF919F918F917F916F9116
:100A20005F914F913F912F910F900FBE0F901F90AC
:100A300018951F920F920FB60F9211244F935F9348
:100A40006F937F938F939F93AF93BF938091740025
:100A500090917500A0917600B09177000196A11D4C
:100A6000B11D8093740090937500A0937600B093AD
:100A70007700409187005091880060E070E0841713
:100A80009507A607B70789F4809184008F5F80934C
:100A900084001092740010927500109276001092EB
:100AA0007700809185008CBF02C08FEF8CBFBF9113
:100AB000AF919F918F917F916F915F914F910F9027
:100AC0000FBE0F901F9018958FB780688FBF89B7A2
:100AD0008F73806489BF85B5877B85BD08950F932B
:100AE0001F939B01AC01A8EEB3E00E9490070E9407
:100AF000860620E030E040E85CE30E94EC060E94BD
:100B00005706662339F0072F182F292F33270F5F39
:100B10001F4F04C0072F182F292F3327109383004E
:100B200000938200619560937F0064BD1F910F91D7
:100B3000089585B5876085BD089585B5887F85BD95
:100B400008951F920F920FB60F9211242F933F9387
:100B50004F935F936F937F938F939F93AF93BF93C5
:100B6000EF93FF938091700090917100A0917200BB
:100B7000B09173000196A11DB11D809370009093F8
:100B80007100A0937200B093730040918200509165
:100B9000830060E070E084179507A607B70759F552
:100BA00080916A00813059F40E949E0268EE73E0E1
:100BB00080E090E00E946F050E9499050CC0823091
:100BC00051F40E943C0468EE73E080E090E00E94E3
:100BD0006F050E94990580917D008F5F80937D0055
:100BE00010927000109271001092720010927300B7
:100BF00080917F0084BDFF91EF91BF91AF919F9154
:100C00008F917F916F915F914F913F912F910F90B5
:100C10000FBE0F901F9018951F920F920FB60F9254
:100C200011244F935F936F937F938F939F93AF9311
:100C3000BF9380916C0090916D00A0916E00B09177
:100C40006F000196A11DB11D80936C0090936D0003
:100C5000A0936E00B0936F0040918000509181008E
:100C600060E070E084179507A607B70789F48091C4
:100C70007D008F5F80937D0010926C0010926D005C
:100C800010926E0010926F0080917E0083BD02C0B2
:100C90008FEF83BDBF91AF919F918F917F916F91A6
:100CA0005F914F910F900FBE0F901F9018950E946B
:100CB000CB0688F09F5798F0B92F9927B751B0F01D
:100CC000E1F0660F771F881F991F1AF0BA95C9F7D0
:100CD00014C0B13091F00E94E506B1E008950C9483
:100CE000E506672F782F8827B85F39F0B93FCCF336
:100CF000869577956795B395D9F73EF4909580954D
:100D0000709561957F4F8F4F9F4F0895E89409C06C
:100D100097FB3EF490958095709561957F4F8F4F2E
:100D20009F4F9923A9F0F92F96E9BB279395F69544
:100D3000879577956795B795F111F8CFFAF4BB0FC2
:100D400011F460FF1BC06F5F7F4F8F4F9F4F16C026
:100D5000882311F096E911C0772321F09EE8872FB0
:100D6000762F05C0662371F096E8862F70E060E06C
:100D70002AF09A95660F771F881FDAF7880F9695E5
:100D8000879597F9089557FD9058440F551F59F0CE
:100D90005F3F71F04795880F97FB991F61F09F3F68
:100DA00079F087950895121613061406551FF2CF91
:100DB0004695F1DF08C0161617061806991FF1CFE1
:100DC00086957105610508940895E894BB27662708
:100DD0007727CB0197F908950E94FF060C947007BE
:100DE0000E94620738F00E94690720F0952311F0F5
:100DF0000C9459070C945F0711240C94E6060E948A
:100E0000C30670F3959FC1F3950F50E0551F629F85
:100E1000F001729FBB27F00DB11D639FAA27F00D53
:100E2000B11DAA1F649F6627B00DA11D661F829F7A
:100E30002227B00DA11D621F739FB00DA11D621F5F
:100E4000839FA00D611D221F749F3327A00D611D7C
:100E5000231F849F600D211D822F762F6A2F11245E
:100E60009F5750409AF0F1F088234AF0EE0FFF1F91
:100E7000BB1F661F771F881F91505040A9F79E3FE8
:100E8000510580F00C9459070C94E6065F3FE4F39B
:100E9000983ED4F3869577956795B795F795E7953E
:100EA0009F5FC1F7FE2B880F911D9695879597F947
:100EB000089597F99F6780E870E060E008959FEFDC
:100EC00080EC089500240A941616170618060906E1
:100ED000089500240A9412161306140605060895B0
:100EE000092E0394000C11F4882352F0BB0F40F438
:100EF000BF2B11F460FF04C06F5F7F4F8F4F9F4F78
:100F00000895A29FB001B39FC001A39F700D811DE2
:100F10001124911DB29F700D811D1124911D089502
:100F20000E948107A59F900DB49F900DA49F800DF6
:0A0F3000911D11240895F894FFCFDD
:0A0F3A003F065B4F666D7D077F6F79
:00000001FF
