S0140000416D69745F50726F6A6563742E737265634F
S11300000C942A000C94B4020C94C9020C940B03B3
S11300100C94FF050C9494050C9447000C94470031
S11300200C9447000C9447000C940C050C94770432
S11300300C9447000C9447000C9447000C94470020
S11300400C9447000C9447000C9447000C94470010
S11300500C94470011241FBECFE5D8E0DEBFCDBF0E
S113006010E0A0E6B0E0E0E2FFE002C005900D92EF
S1130070AC36B107D9F720E0ACE6B0E001C01D9280
S1130080A739B207E1F70E94A1020C948E070C94E1
S113009000008FB780688FBF86B1877F86B987B12C
S11300A08F71806487B986B1876286B980B78F7192
S11300B080BF86B1806886B9089597B1987F892BEF
S11300C087B986B1806486B9349BFECF84B195B17B
S11300D008956091600080E090E00E9448020E94D0
S11300E039040E9457050E9449000E945F030E9440
S11300F04D030E948A020E945B020E946A020E94CF
S11301007A020E94710310926C0008950E94730495
S11301100E9490050E941A040E9496020E946B039A
S11301200E94590380916C008823E1F308950E9492
S1130130250480E090E00E9454028093600064E60D
S113014070E080E090E00E9444040E946E042091DC
S11301508C0030E08091600090E0AC014550510982
S113016024173507D4F468EE73E080E090E00E9431
S113017062050E948C050E9459030E94650302C017
S11301800E94D60380918C00909160008917F0F54D
S113019090916C009130A1F308950596821793070E
S11301A0A4F40E9490020E9453030E946B0302C0B5
S11301B00E94D60380918C0090916000981730F5CE
S11301C090916C009130A1F308950E9490050E94D3
S11301D059030E946B030E94960202C00E94D60338
S11301E080918C00482F50E02091600030E0B901EC
S11301F065507109461757074CF02B5F3F4F241782
S1130200350724F090916C00913041F3089568EE25
S113021073E080E090E00E9462050E948C0504C0B7
S1130220809160000E94D60380916C008230C1F3FB
S11302300895BC0190E020E030E007C0FB01E90F25
S1130240F11D4081240F311D9F5F9A30B8F3ADEC4E
S1130250BCEC0E947407969587959695879596951C
S113026087950895442319F04130C9F108958130E8
S113027091F028F08230D9F0833029F108952AB31F
S113028081E090E002C0880F991F6A95E2F780959B
S113029082238ABB089527B381E090E002C0880FCF
S11302A0991F6A95E2F78095822387BB089524B34A
S11302B081E090E002C0880F991F6A95E2F780956B
S11302C0822384BB089521B381E090E002C0880FAB
S11302D0991F6A95E2F78095822381BB0895813046
S11302E089F028F08230C9F0833011F108952AB3DF
S11302F081E090E002C0880F991F6A95E2F7822B93
S11303008ABB089527B381E090E002C0880F991F4B
S11303106A95E2F7822B87BB089524B381E090E0CD
S113032002C0880F991F6A95E2F7822B84BB089557
S113033021B381E090E002C0880F991F6A95E2F72B
S1130340822B81BB0895442319F04130C9F10895EB
S1130350813091F028F08230D9F0833029F108956A
S11303602BB381E090E002C0880F991F6A95E2F7F1
S1130370809582238BBB089528B381E090E002C06E
S1130380880F991F6A95E2F78095822388BB0895A8
S113039025B381E090E002C0880F991F6A95E2F7C7
S11303A08095822385BB089522B381E090E002C04A
S11303B0880F991F6A95E2F78095822382BB08957E
S11303C0813089F028F08230C9F0833011F108952A
S11303D02BB381E090E002C0880F991F6A95E2F781
S11303E0822B8BBB089528B381E090E002C0880F74
S11303F0991F6A95E2F7822B88BB089525B381E0A3
S113040090E002C0880F991F6A95E2F7822B85BBA2
S1130410089522B381E090E002C0880F991F6A9585
S1130420E2F7822B82BB0895813089F028F0823074
S1130430C9F0833011F108952BB381E090E002C03C
S1130440880F991F6A95E2F782278BBB089528B31A
S113045081E090E002C0880F991F6A95E2F7822735
S113046088BB089525B381E090E002C0880F991FEE
S11304706A95E2F7822785BB089522B381E090E074
S113048002C0880F991F6A95E2F7822782BB0895FC
S1130490E199FECF6DBB8EBB9FBB8CB384608CBBDC
S11304A08CB382608CBB08958EBB9FBB8CB3816080
S11304B08CBB8DB308958FB780688FBF8BB7806472
S11304C08BBF40E062E083E00E94320185B7836025
S11304D085BF08958FB780688FBF8BB780688BBF47
S11304E040E063E083E00E94320185B7807F83604F
S11304F085BF08958FB780688FBF8BB780628BBF2D
S113050040E062E081E00E94320184B78E7B81602A
S113051084BF089541E060E081E00E9432010895C3
S113052041E060E081E00E94A301089540E060E0C2
S113053081E00E94A301089560E081E00E9414021A
S113054008950E94690080916C00813021F030F0A0
S1130550823039F0F8CF0E949700F5CF0E948600D0
S1130560F2CF0E940701EFCF1F920F920FB60F92A6
S113057011248F939F9381E090916C00911180E0FE
S113058080936C009F918F910F900FBE0F901F90DE
S113059018951F920F920FB60F9211242F933F9329
S11305A04F935F936F937F938F939F93AF93BF9377
S11305B0EF93FF9380916C0081508230D8F482E0F5
S11305C080936C00809160008B5F809360008C341A
S11305D018F08BE4809360006091600080E090E00C
S11305E00E94480268E873E180E090E00E944404BD
S11305F00E946E04FF91EF91BF91AF919F918F91F3
S11306007F916F915F914F913F912F910F900FBE0A
S11306100F901F9018951F920F920FB60F921124EE
S11306202F933F934F935F936F937F938F939F93F6
S1130630AF93BF93EF93FF9380916C00815082300E
S1130640D8F482E080936C008091600085508093A0
S11306506000833218F483E280936000609160004C
S113066080E090E00E94480268E873E180E090E056
S11306700E9444040E946E04FF91EF91BF91AF91D8
S11306809F918F917F916F915F914F913F912F91A6
S11306900F900FBE0F901F90189541E065E081E028
S11306A00E943201089541E065E081E00E94A301C7
S11306B0089540E065E081E00E94A301089541E0CF
S11306C064E081E00E943201089541E064E081E049
S11306D00E94A301089540E064E081E00E94A30128
S11306E0089541E060E082E00E94320141E061E06F
S11306F082E00E94320141E062E082E00E94320125
S113070041E063E082E00E94320141E064E082E083
S11307100E94320141E065E082E00E94320141E042
S113072066E082E00E94320141E061E083E00E94E1
S1130730320141E060E083E00E94320141E066E082
S113074083E00E94320141E060E082E00E94A30164
S113075041E061E082E00E94A30141E062E082E0C6
S11307600E94A30141E063E082E00E94A30141E012
S113077064E082E00E94320141E065E082E00E9490
S1130780320141E066E082E00E94320141E061E032
S113079083E00E94A30141E060E083E00E94A301A2
S11307A041E066E083E00E94A3010895CF9384367C
S11307B008F080E0EDEC8E9FE12D11249E2F96959C
S11307C096959695990F292F220F220F920F891B28
S11307D0CE2FC695C695C695E82FF0E0EF59FF4F8A
S11307E0808185BB40E061E083E00E94A30141E099
S11307F060E083E00E94A3018FE19EE40197F1F79A
S113080000C00000EC2FF0E0EF59FF4F808185BB62
S113081041E061E083E00E94A30140E060E083E006
S11308200E94A3018FE19EE40197F1F700C000004C
S1130830CF91089541E061E083E00E94A30141E08B
S113084060E083E00E94A301089540E061E083E05A
S11308500E94A30140E060E083E00E94A3010895A8
S113086061E083E00E94140260E083E00E941402CD
S113087008958FB780688FBF89B78C7F816089BFE7
S113088083B7877B83BF08950F931F939B01AC01AC
S1130890A8EEB3E00E9483070E94790620E030E0CE
S11308A040E85CE30E94DF060E944A06662339F0B2
S11308B0072F182F292F33270F5F1F4F04C0072F2F
S11308C0182F292F332710938B0000938A006195EA
S11308D06093870062BF1F910F91089583B7887F4B
S11308E0856083BF089583B7887F83BF08951F926F
S11308F00F920FB60F9211242F933F934F935F9350
S11309006F937F938F939F93AF93BF93CF93DF9313
S1130910EF93FF9380917A0090917B00A0917C00EB
S1130920B0917D000196A11DB11D80937A00909332
S11309307B00A0937C00B0937D0040918A0050918D
S11309408B0060E070E084179507A607B70709F0ED
S113095050C080916C00823021F481E080936C005F
S113096038C08130B1F5C09179008DECC89F812DDC
S11309701124869586958695880F982F990F990F3F
S1130980890FC81BD0E080E00E945D00BC0180E0BC
S113099090E00E94790620E030E04AEF5EE30E9496
S11309A0DF060E944A06C357DF4F688380917900AF
S11309B08F5F809379008DE890E00E941901809305
S11309C08C0064E670E080E090E00E9444040E94A1
S11309D06E04809185008F5F8093850010927A0069
S11309E010927B0010927C0010927D008091870011
S11309F082BFFF91EF91DF91CF91BF91AF919F9112
S1130A008F917F916F915F914F913F912F910F90B3
S1130A100FBE0F901F9018951F920F920FB60F9252
S1130A2011244F935F936F937F938F939F93AF930F
S1130A30BF938091750090917600A0917700B0915A
S1130A4078000196A11DB11D8093750090937600E6
S1130A50A0937700B093780040918800509189006A
S1130A6060E070E084179507A607B70789F48091C2
S1130A7085008F5F80938500109275001092760038
S1130A801092770010927800809186008CBF02C08B
S1130A908FEF8CBFBF91AF919F918F917F916F9199
S1130AA05F914F910F900FBE0F901F9018958FB7C5
S1130AB080688FBF89B78F73806489BF85B5877B52
S1130AC085BD08950F931F939B01AC01A8EEB3E07D
S1130AD00E9483070E94790620E030E040E85CE34E
S1130AE00E94DF060E944A06662339F0072F182F5A
S1130AF0292F33270F5F1F4F04C0072F182F292FCB
S1130B0033271093840000938300619560938000E1
S1130B1064BD1F910F91089585B5876085BD0895C3
S1130B2085B5887F85BD08951F920F920FB60F92E9
S1130B3011242F933F934F935F936F937F938F93DE
S1130B409F93AF93BF93EF93FF9380917100909124
S1130B507200A0917300B09174000196A11DB11DA3
S1130B608093710090937200A0937300B09374000B
S1130B70409183005091840060E070E084179507F1
S1130B80A607B70759F580916C00813059F40E948B
S1130B909C0268EE73E080E090E00E9462050E948F
S1130BA08C050CC0823051F40E94300468EE73E06E
S1130BB080E090E00E9462050E948C0580917E0096
S1130BC08F5F80937E0010927100109272001092D9
S1130BD07300109274008091800084BDFF91EF91A6
S1130BE0BF91AF919F918F917F916F915F914F9141
S1130BF03F912F910F900FBE0F901F9018951F9249
S1130C000F920FB60F9211244F935F936F937F93BC
S1130C108F939F93AF93BF9380916D0090916E00DB
S1130C20A0916F00B09170000196A11DB11D809339
S1130C306D0090936E00A0936F00B093700040918C
S1130C4081005091820060E070E084179507A60748
S1130C50B70789F480917E008F5F80937E001092A5
S1130C606D0010926E0010926F00109270008091CF
S1130C707F0083BD02C08FEF83BDBF91AF919F9171
S1130C808F917F916F915F914F910F900FBE0F9055
S1130C901F9018950E94BE0688F09F5798F0B92FB0
S1130CA09927B751B0F0E1F0660F771F881F991F9D
S1130CB01AF0BA95C9F714C0B13091F00E94D80661
S1130CC0B1E008950C94D806672F782F8827B85F71
S1130CD039F0B93FCCF3869577956795B395D9F7F5
S1130CE03EF490958095709561957F4F8F4F9F4FFF
S1130CF00895E89409C097FB3EF49095809570950B
S1130D0061957F4F8F4F9F4F9923A9F0F92F96E953
S1130D10BB279395F695879577956795B795F111C8
S1130D20F8CFFAF4BB0F11F460FF1BC06F5F7F4F65
S1130D308F4F9F4F16C0882311F096E911C0772377
S1130D4021F09EE8872F762F05C0662371F096E880
S1130D50862F70E060E02AF09A95660F771F881F4F
S1130D60DAF7880F9695879597F9089557FD905867
S1130D70440F551F59F05F3F71F04795880F97FB5B
S1130D80991F61F09F3F79F0879508951216130615
S1130D901406551FF2CF4695F1DF08C01616170644
S1130DA01806991FF1CF8695710561050894089579
S1130DB0E894BB2766277727CB0197F908950E940B
S1130DC0F2060C9463070E94550738F00E945C07F2
S1130DD020F0952311F00C944C070C945207112425
S1130DE00C94D9060E94B60670F3959FC1F3950F33
S1130DF050E0551F629FF001729FBB27F00DB11D9B
S1130E00639FAA27F00DB11DAA1F649F6627B00D2A
S1130E10A11D661F829F2227B00DA11D621F739F13
S1130E20B00DA11D621F839FA00D611D221F749F21
S1130E303327A00D611D231F849F600D211D822F68
S1130E40762F6A2F11249F5750409AF0F1F088238F
S1130E504AF0EE0FFF1FBB1F661F771F881F9150BC
S1130E605040A9F79E3F510580F00C944C070C9418
S1130E70D9065F3FE4F3983ED4F38695779567955A
S1130E80B795F795E7959F5FC1F7FE2B880F911DE6
S1130E909695879597F9089597F99F6780E870E08C
S1130EA060E008959FEF80EC089500240A941616DC
S1130EB0170618060906089500240A941216130644
S1130EC0140605060895092E0394000C11F48823D2
S1130ED052F0BB0F40F4BF2B11F460FF04C06F5FEE
S1130EE07F4F8F4F9F4F0895A29FB001B39FC001C2
S1130EF0A39F700D811D1124911DB29F700D811D42
S1130F001124911D08950E947407A59F900DB49F0C
S1130F10900DA49F800D911D11240895F894FFCF86
S10F0F203C3F065B4F666D7D077F6F0051
S9030000FC
