S0140000416D69745F50726F6A6563742E737265634F
S11300000C942A000C94B5020C94CA020C940703B5
S11300100C94F7050C948C050C9447000C94470041
S11300200C9447000C9447000C9403050C946E0444
S11300300C9447000C9447000C9447000C94470020
S11300400C9447000C9447000C9447000C94470010
S11300500C94470011241FBECFE5D8E0DEBFCDBF0E
S113006010E0A0E6B0E0E0E1FFE002C005900D92F0
S1130070A637B107D9F720E0A6E7B0E001C01D928A
S1130080A639B207E1F70E94A2020C9486070C94E9
S113009000008FB780688FBF86B1877F86B987B12C
S11300A08F71806487B986B1876286B980B78F7192
S11300B080BF86B1806886B9089597B1987F892BEF
S11300C087B986B1806486B9349BFECF84B195B17B
S11300D008950E9430040E944E050E9449000E9427
S11300E056030E9444030E948B020E945C020E94F9
S11300F06B020E947B020E94680360916B0080E0A7
S113010095E00E9449021092760008950E946A04C4
S11301100E9488050E9411040E9497020E946203B3
S11301200E945003809176008823E1F308950E9491
S11301301C0480E095E00E94550280936B0064E605
S113014070E080E090E00E943B040E9465042091EE
S11301506A0030E080916B0090E0AC014550510999
S113016024173507ACF40E9450030E945C030E94DC
S1130170910202C00E94CD0380916A0090916B00AD
S1130180891708F044C090917600913099F308954E
S1130190059682179307D4F464EF71E080E090E051
S11301A00E945A050E9484050E944A030E94620329
S11301B002C00E94CD0380916A0090916B00981751
S11301C030F5909176009130A1F308950E9488054E
S11301D00E9450030E9462030E94970202C00E9480
S11301E0CD0380916A00482F50E020916B0030E0ED
S11301F0B90165507109461757074CF02B5F3F4F03
S11302002417350724F090917600913041F3089536
S113021064EF71E080E090E00E945A050E9484053A
S113022004C080916B000E94CD03809176008230DF
S1130230C1F30895BC0190E020E030E007C0FB0169
S1130240E90FF11D4081240F311D9F5F9A30B8F3EF
S1130250ADECBCEC0E946C079695879596958795B6
S1130260969587950895442319F04130C9F108956E
S1130270813091F028F08230D9F0833029F108954B
S11302802AB381E090E002C0880F991F6A95E2F7D3
S1130290809582238ABB089527B381E090E002C051
S11302A0880F991F6A95E2F78095822387BB08958A
S11302B024B381E090E002C0880F991F6A95E2F7A9
S11302C08095822384BB089521B381E090E002C02D
S11302D0880F991F6A95E2F78095822381BB089560
S11302E0813089F028F08230C9F0833011F108950B
S11302F02AB381E090E002C0880F991F6A95E2F763
S1130300822B8ABB089527B381E090E002C0880F56
S1130310991F6A95E2F7822B87BB089524B381E085
S113032090E002C0880F991F6A95E2F7822B84BB84
S1130330089521B381E090E002C0880F991F6A9567
S1130340E2F7822B81BB0895442319F04130C9F1AF
S11303500895813091F028F08230D9F0833029F16A
S113036008952BB381E090E002C0880F991F6A952D
S1130370E2F7809582238BBB089528B381E090E057
S113038002C0880F991F6A95E2F78095822388BB83
S1130390089525B381E090E002C0880F991F6A9503
S11303A0E2F78095822385BB089522B381E090E033
S11303B002C0880F991F6A95E2F78095822382BB59
S11303C00895813089F028F08230C9F0833011F12A
S11303D008952BB381E090E002C0880F991F6A95BD
S11303E0E2F7822B8BBB089528B381E090E002C032
S11303F0880F991F6A95E2F7822B88BB089525B36D
S113040081E090E002C0880F991F6A95E2F7822B81
S113041085BB089522B381E090E002C0880F991F44
S11304206A95E2F7822B82BB0895813089F028F027
S11304308230C9F0833011F108952BB381E090E04C
S113044002C0880F991F6A95E2F782278BBB089533
S113045028B381E090E002C0880F991F6A95E2F703
S1130460822788BB089525B381E090E002C0880FFD
S1130470991F6A95E2F7822785BB089522B381E02C
S113048090E002C0880F991F6A95E2F7822782BB29
S11304900895E199FECF6DBB8EBB9FBB8CB3846086
S11304A08CBB8CB382608CBB08958EBB9FBB8CB31A
S11304B081608CBB8DB308958FB780688FBF8BB775
S11304C080648BBF40E062E083E00E94330185B723
S11304D0836085BF08958FB780688FBF8BB78068AE
S11304E08BBF40E063E083E00E94330185B7807FE7
S11304F0836085BF08958FB780688FBF8BB7806294
S11305008BBF40E062E081E00E94330184B78E7BC0
S1130510816084BF089541E060E081E00E9433017E
S1130520089541E060E081E00E94A401089540E064
S113053060E081E00E94A401089560E081E00E94EF
S1130540150208950E94690080917600813021F09F
S113055030F0823039F0F8CF0E949700F5CF0E9436
S11305608600F2CF0E940801EFCF1F920F920FB6C0
S11305700F9211248F939F9381E0909176009111B3
S113058080E0809376009F918F910F900FBE0F9023
S11305901F9018951F920F920FB60F9211242F934C
S11305A03F934F935F936F937F938F939F93AF93F7
S11305B0BF93EF93FF9382E08093760080916B006A
S11305C08B5F80936B008C3418F08BE480936B000A
S11305D060916B0080E095E00E94490268E873E155
S11305E080E090E00E943B040E946504FF91EF913B
S11305F0BF91AF919F918F917F916F915F914F9137
S11306003F912F910F900FBE0F901F9018951F923E
S11306100F920FB60F9211242F933F934F935F9332
S11306206F937F938F939F93AF93BF93EF93FF93B6
S113063082E08093760080916B00855080936B00FC
S1130640833218F483E280936B0060916B0080E046
S113065095E00E94490268E873E180E090E00E941E
S11306603B040E946504FF91EF91BF91AF919F916C
S11306708F917F916F915F914F913F912F910F9047
S11306800FBE0F901F90189541E065E081E00E9435
S11306903301089541E065E081E00E94A4010895DA
S11306A040E065E081E00E94A401089541E064E037
S11306B081E00E943301089541E064E081E00E94FA
S11306C0A401089540E064E081E00E94A40108953B
S11306D041E060E082E00E94330141E061E082E0B9
S11306E00E94330141E062E082E00E94330141E074
S11306F063E082E00E94330141E064E082E00E9412
S1130700330141E065E082E00E94330141E066E0AC
S113071082E00E94330141E061E083E00E94330102
S113072041E060E083E00E94330141E063E083E064
S11307300E94330141E060E082E00E94A40141E0B4
S113074061E082E00E94A40141E062E082E00E9454
S1130750A40141E063E082E00E94A40141E064E07E
S113076082E00E94330141E065E082E00E943301AF
S113077041E066E082E00E94330141E061E083E011
S11307800E94A40141E060E083E00E94A40141E0F2
S113079063E083E00E94A4010895CF93843608F0B7
S11307A080E0EDEC8E9FE12D11249E2F9695969579
S11307B09695990F292F220F220F920F891BCE2F66
S11307C0C695C695C695E82FF0E0E459FF4F8081A1
S11307D085BB40E061E083E00E94A40141E060E069
S11307E083E00E94A4018FE19EE40197F1F700C029
S11307F00000EC2FF0E0E459FF4F808185BB41E01D
S113080061E083E00E94A40140E060E083E00E9494
S1130810A4018FE19EE40197F1F700C00000CF919D
S1130820089541E061E083E00E94A40141E060E0BA
S113083083E00E94A401089540E061E083E00E9407
S1130840A40140E060E083E00E94A401089561E017
S113085083E00E94150260E083E00E94150208957F
S11308608FB780688FBF89B78C7F816089BF83B75A
S1130870877B83BF08950F931F939B01AC01A8EE60
S1130880B3E00E947B070E94710620E030E040E85C
S11308905CE30E94D7060E944206662339F0072FC4
S11308A0182F292F33270F5F1F4F04C0072F182F2E
S11308B0292F33271093950000939400619560933A
S11308C0910062BF1F910F91089583B7887F85605F
S11308D083BF089583B7887F83BF08951F920F92C3
S11308E00FB60F9211242F933F934F935F936F93FF
S11308F07F938F939F93AF93BF93CF93DF93EF93A4
S1130900FF938091840090918500A0918600B0911E
S113091087000196A11DB11D8093840090938500EA
S1130920A0938600B0938700409194005091950065
S113093060E070E084179507A607B70709F050C078
S113094080917600823021F481E08093760038C073
S11309508130B1F5C09183008DECC89F812D1124A5
S1130960869586958695880F982F990F990F890FEC
S1130970C81BD0E080E00E945D00BC0180E090E0F4
S11309800E94710620E030E04AEF5EE30E94D70641
S11309900E944206C05ADF4F6883809183008F5FB4
S11309A08093830080E690E00E941A0180936A009D
S11309B064E670E080E090E00E943B040E946504DD
S11309C080918F008F5F80938F001092840010922B
S11309D0850010928600109287008091910082BF5A
S11309E0FF91EF91DF91CF91BF91AF919F918F9143
S11309F07F916F915F914F913F912F910F900FBE17
S1130A000F901F9018951F920F920FB60F921124FA
S1130A104F935F936F937F938F939F93AF93BF9302
S1130A2080917F0090918000A0918100B09182001C
S1130A300196A11DB11D80937F0090938000A09327
S1130A408100B0938200409192005091930060E045
S1130A5070E084179507A607B70789F480918F0083
S1130A608F5F80938F0010927F001092800010920D
S1130A70810010928200809190008CBF02C08FEFA1
S1130A808CBFBF91AF919F918F917F916F915F9137
S1130A904F910F900FBE0F901F9018958FB78068DD
S1130AA08FBF89B78F73806889BF85B5877B88605E
S1130AB085BD08950F931F939B01AC01A8EEB3E08D
S1130AC00E947B070E94710620E030E040E85CE36E
S1130AD00E94D7060E944206662339F0072F182F7A
S1130AE0292F33270F5F1F4F04C0072F182F292FDB
S1130AF0332710938C0000938B006150609389001E
S1130B0063BD1F910F91089585B5876085BD0895D4
S1130B1085B5887F85BD08951F920F920FB60F92F9
S1130B2011242F933F934F935F936F937F938F93EE
S1130B309F93AF93BF93EF93FF9380917B0090912A
S1130B407C00A0917D00B0917E000196A11DB11D95
S1130B5080937B0090937C00A0937D00B0937E00F3
S1130B6040918D0050918E0060E070E084179507ED
S1130B70A607B70759F580917600813059F40E9491
S1130B809D0264EF71E080E090E00E945A050E94AB
S1130B9084050CC0823051F40E94270464EF71E094
S1130BA080E090E00E945A050E94840580918800AC
S1130BB08F5F8093880010927B0010927C001092CB
S1130BC07D0010927E0080918A0084BDFF91EF9198
S1130BD0BF91AF919F918F917F916F915F914F9151
S1130BE03F912F910F900FBE0F901F9018951F9259
S1130BF00F920FB60F9211244F935F936F937F93CD
S1130C008F939F93AF93BF938091770090917800D7
S1130C10A0917900B0917A000196A11DB11D809335
S1130C20770090937800A0937900B0937A00409174
S1130C308B0050918C0060E070E084179507A60744
S1130C40B70789F4809188008F5F809388001092A1
S1130C507700109278001092790010927A008091B7
S1130C60890083BD02C08FEF83BDBF91AF919F9177
S1130C708F917F916F915F914F910F900FBE0F9065
S1130C801F9018950E94B60688F09F5798F0B92FC8
S1130C909927B751B0F0E1F0660F771F881F991FAD
S1130CA01AF0BA95C9F714C0B13091F00E94D00679
S1130CB0B1E008950C94D006672F782F8827B85F89
S1130CC039F0B93FCCF3869577956795B395D9F705
S1130CD03EF490958095709561957F4F8F4F9F4F0F
S1130CE00895E89409C097FB3EF49095809570951B
S1130CF061957F4F8F4F9F4F9923A9F0F92F96E964
S1130D00BB279395F695879577956795B795F111D8
S1130D10F8CFFAF4BB0F11F460FF1BC06F5F7F4F75
S1130D208F4F9F4F16C0882311F096E911C0772387
S1130D3021F09EE8872F762F05C0662371F096E890
S1130D40862F70E060E02AF09A95660F771F881F5F
S1130D50DAF7880F9695879597F9089557FD905877
S1130D60440F551F59F05F3F71F04795880F97FB6B
S1130D70991F61F09F3F79F0879508951216130625
S1130D801406551FF2CF4695F1DF08C01616170654
S1130D901806991FF1CF8695710561050894089589
S1130DA0E894BB2766277727CB0197F908950E941B
S1130DB0EA060C945B070E944D0738F00E94540722
S1130DC020F0952311F00C9444070C944A07112445
S1130DD00C94D1060E94AE0670F3959FC1F3950F53
S1130DE050E0551F629FF001729FBB27F00DB11DAB
S1130DF0639FAA27F00DB11DAA1F649F6627B00D3B
S1130E00A11D661F829F2227B00DA11D621F739F23
S1130E10B00DA11D621F839FA00D611D221F749F31
S1130E203327A00D611D231F849F600D211D822F78
S1130E30762F6A2F11249F5750409AF0F1F088239F
S1130E404AF0EE0FFF1FBB1F661F771F881F9150CC
S1130E505040A9F79E3F510580F00C9444070C9430
S1130E60D1065F3FE4F3983ED4F386957795679572
S1130E70B795F795E7959F5FC1F7FE2B880F911DF6
S1130E809695879597F9089597F99F6780E870E09C
S1130E9060E008959FEF80EC089500240A941616EC
S1130EA0170618060906089500240A941216130654
S1130EB0140605060895092E0394000C11F48823E2
S1130EC052F0BB0F40F4BF2B11F460FF04C06F5FFE
S1130ED07F4F8F4F9F4F0895A29FB001B39FC001D2
S1130EE0A39F700D811D1124911DB29F700D811D52
S1130EF01124911D08950E946C07A59F900DB49F25
S1130F00900DA49F800D911D11240895F894FFCF96
S1130F100A0A00323C1E0A3232324A3C3F065B4F18
S1090F20666D7D077F6F82
S9030000FC
