:100000000C942A000C9413020C9428020C945D02A8
:100010000C944C050C9404050C9447000C94470078
:100020000C9447000C9447000C9427040C948A030A
:100030000C9447000C9447000C9447000C94470024
:100040000C9447000C9447000C9447000C94470014
:100050000C94470011241FBECFE5D8E0DEBFCDBF12
:1000600010E0A0E6B0E0E4E4FEE002C005900D92EE
:10007000A637B107D9F720E0A6E7B0E001C01D928E
:10008000A639B207E1F70E94F6010C9420070C9400
:1000900000008FB780688FBF86B1877F86B987B130
:1000A0008F71806487B986B1876286B980B78F7196
:1000B00080BF86B1806886B9089597B1987F892BF3
:1000C00087B986B1806486B9349BFECF84B195B17F
:1000D00008950E9450030E94CA040E9449000E9491
:1000E00098020E9492020E94EB010E94BC010E94B1
:1000F000CB010E94DB010E949E0260916B0080E0B8
:1001000095E00E94B001109276000895AC0190E055
:1001100020E006C0FA01E90FF11D3081230F9F5F37
:100120009A30C0F38DEC289F812D112486958695F9
:1001300086950895442319F04130C9F1089581301E
:1001400091F028F08230D9F0833029F108952AB354
:1001500081E090E002C0880F991F6A95E2F78095D0
:1001600082238ABB089527B381E090E002C0880F04
:10017000991F6A95E2F78095822387BB089524B37F
:1001800081E090E002C0880F991F6A95E2F78095A0
:10019000822384BB089521B381E090E002C0880FE0
:1001A000991F6A95E2F78095822381BB089581307B
:1001B00089F028F08230C9F0833011F108952AB314
:1001C00081E090E002C0880F991F6A95E2F7822BC8
:1001D0008ABB089527B381E090E002C0880F991F81
:1001E0006A95E2F7822B87BB089524B381E090E003
:1001F00002C0880F991F6A95E2F7822B84BB08958D
:1002000021B381E090E002C0880F991F6A95E2F760
:10021000822B81BB0895442319F04130C9F1089520
:10022000813091F028F08230D9F0833029F108959F
:100230002BB381E090E002C0880F991F6A95E2F726
:10024000809582238BBB089528B381E090E002C0A3
:10025000880F991F6A95E2F78095822388BB0895DD
:1002600025B381E090E002C0880F991F6A95E2F7FC
:100270008095822385BB089522B381E090E002C07F
:10028000880F991F6A95E2F78095822382BB0895B3
:10029000813089F028F08230C9F0833011F108955F
:1002A0002BB381E090E002C0880F991F6A95E2F7B6
:1002B000822B8BBB089528B381E090E002C0880FA9
:1002C000991F6A95E2F7822B88BB089525B381E0D8
:1002D00090E002C0880F991F6A95E2F7822B85BBD8
:1002E000089522B381E090E002C0880F991F6A95BB
:1002F000E2F7822B82BB0895813089F028F08230AA
:10030000C9F0833011F108952BB381E090E002C071
:10031000880F991F6A95E2F782278BBB089528B34F
:1003200081E090E002C0880F991F6A95E2F782276A
:1003300088BB089525B381E090E002C0880F991F23
:100340006A95E2F7822785BB089522B381E090E0A9
:1003500002C0880F991F6A95E2F7822782BB089531
:10036000E199FECF6DBB8EBB9FBB8CB384608CBB11
:100370008CB382608CBB08958FB780688FBF8BB7BA
:1003800080648BBF40E062E083E00E949A0085B702
:10039000836085BF08958FB780688FBF8BB78068F3
:1003A0008BBF40E063E083E00E949A0085B7807FC6
:1003B000836085BF08958FB780688FBF8BB78062D9
:1003C0008BBF40E062E081E00E949A0084B78E7BA0
:1003D000816084BF089541E060E081E00E949A005E
:1003E000089560E081E00E947C0108950E94690008
:1003F00081E0809376000E9450030E94490080E0D3
:100400000E945D00BC0180E090E00E94E90520E0D0
:1004100030E04AEF5EE30E944F060E94BA05862F45
:100420000E940303ECCF1F920F920FB60F9211247C
:100430008F939F9381E090917600911180E080935B
:1004400076009F918F910F900FBE0F901F9018957F
:100450001F920F920FB60F9211242F933F934F9339
:100460005F936F937F938F939F93AF93BF93EF931C
:10047000FF9382E08093760080916B008B5F809386
:100480006B008C3418F08BE480936B0060916B00F0
:1004900080E095E00E94B001FF91EF91BF91AF9194
:1004A0009F918F917F916F915F914F913F912F918C
:1004B0000F900FBE0F901F9018951F920F920FB6BE
:1004C0000F9211242F933F934F935F936F937F93DA
:1004D0008F939F93AF93BF93EF93FF9382E08093AB
:1004E000760080916B00855080936B00833218F406
:1004F00083E280936B0060916B0080E095E00E9446
:10050000B001FF91EF91BF91AF919F918F917F913A
:100510006F915F914F913F912F910F900FBE0F9070
:100520001F90189541E065E081E00E949A000895CF
:1005300041E064E081E00E949A00089541E060E0BB
:1005400082E00E949A0041E061E082E00E949A000D
:1005500041E062E082E00E949A0041E063E082E0D4
:100560000E949A0041E064E082E00E949A0041E02B
:1005700065E082E00E949A0041E066E082E00E942D
:100580009A0041E061E083E00E949A0041E060E06F
:1005900083E00E949A0041E063E083E00E949A00B9
:1005A00041E060E082E00E940B0141E061E082E016
:1005B0000E940B0141E062E082E00E940B0141E0F9
:1005C00063E082E00E940B0141E064E082E00E946F
:1005D0009A0041E065E082E00E949A0041E066E016
:1005E00082E00E949A0041E061E083E00E940B01FA
:1005F00041E060E083E00E940B0141E063E083E0C2
:100600000E940B010895CF93843608F080E0EDEC52
:100610008E9FE12D11249E2F969596959695990F74
:10062000292F220F220F920F891BCE2FC695C69518
:10063000C695E82FF0E0E459FF4F808185BB40E08C
:1006400061E083E00E940B0141E060E083E00E94F2
:100650000B018FE19EE40197F1F700C00000EC2F41
:10066000F0E0E459FF4F808185BB41E061E083E029
:100670000E940B0140E060E083E00E940B018FE1EB
:100680009EE40197F1F700C00000CF91089561E06A
:1006900083E00E947C0160E083E00E947C01089579
:1006A0008FB780688FBF89B78C7F816089BF83B720
:1006B000877B83BF08950F931F939B01AC01A8EE26
:1006C000B3E00E9406070E94E90520E030E040E820
:1006D0005CE30E944F060E94BA05662339F0072F9B
:1006E000182F292F33270F5F1F4F04C0072F182FF4
:1006F000292F332710939400009393006195609302
:10070000900062BF1F910F91089583B7887F856025
:1007100083BF08951F920F920FB60F9211242F934B
:100720003F934F935F936F937F938F939F93AF9379
:10073000BF93CF93DF93EF93FF93809183009091CA
:100740008400A0918500B09186000196A11DB11D85
:100750008093830090938400A0938500B0938600DB
:10076000409193005091940060E070E084179507E9
:10077000A607B70709F058C085E480936A00809106
:100780007600823021F481E0809376003DC0813094
:10079000D9F5C09195008DECC89F812D11248695C7
:1007A00086958695880F982F990F990F890FC81BEA
:1007B000D0E080E00E945D00BC0180E090E00E94FB
:1007C000E90520E030E04AEF5EE30E944F060E9418
:1007D000BA05C05ADF4F6883809195008F5F809380
:1007E000950080E00E945D0096959695892F880F70
:1007F000880F980F90936A0064E670E080E090E0C4
:100800000E945B030E94850380918E008F5F80931E
:100810008E00109283001092840010928500109236
:1008200086008091900082BFFF91EF91DF91CF9180
:10083000BF91AF919F918F917F916F915F914F91F8
:100840003F912F910F900FBE0F901F9018951F9200
:100850000F920FB60F921124CF92DF92EF92FF9278
:100860000F931F932F933F934F935F936F937F93B8
:100870008F939F93AF93BF93EF93FF9380917F00EC
:1008800090918000A0918100B09182000196A11DFD
:10089000B11D80937F0090938000A0938100B0935E
:1008A000820025E420936A00209195002F5F209319
:1008B0009500009191001091920020E030E08017A7
:1008C0009107A207B30709F04CC0209176002230AF
:1008D00021F481E08093760033C0213089F5BC019A
:1008E000CD012AE030E040E050E00E94E4066B01D8
:1008F0007C0180E00E945D00BC0180E090E00E94ED
:10090000E90520E030E04AEF5EE30E944F060E94D6
:10091000BA05F601E05AFF4F6083809195008F5F22
:100920008093950080E690E00E94860080936A00A4
:1009300064E670E080E090E00E945B030E94850323
:1009400080918E008F5F80938E0010927F001092B6
:100950008000109281001092820080918F008CBFE5
:1009600002C08FEF8CBFFF91EF91BF91AF919F912C
:100970008F917F916F915F914F913F912F911F9137
:100980000F91FF90EF90DF90CF900F900FBE0F90E0
:100990001F9018958FB780688FBF89B78F73806855
:1009A00089BF85B5877B886085BD08950F931F93A8
:1009B0009B01AC01A8EEB3E00E9406070E94E90586
:1009C00020E030E040E85CE30E944F060E94BA0558
:1009D000662339F0072F182F292F33270F5F1F4F5A
:1009E00004C0072F182F292F332710938B00009353
:1009F0008A0061506093880063BD1F910F91089534
:100A000085B5876085BD08951F920F920FB60F922E
:100A100011244F935F936F937F938F939F93AF9323
:100A2000BF9380917B0090917C00A0917D00B0915C
:100A30007E000196A11DB11D80937B0090937C00E8
:100A4000A0937D00B0937E0040918C0050918D006A
:100A500060E070E084179507A607B70781F48091DE
:100A600087008F5F8093870010927B0010927C003C
:100A700010927D0010927E008091890084BDBF910C
:100A8000AF919F918F917F916F915F914F910F9057
:100A90000FBE0F901F9018951F920F920FB60F92D6
:100AA00011242F933F934F935F936F937F938F9373
:100AB0009F93AF93BF93EF93FF93809177009091B3
:100AC0007800A0917900B0917A000196A11DB11D26
:100AD0008093770090937800A0937900B0937A0088
:100AE00040918A0050918B0060E070E08417950778
:100AF000A607B70761F580917600813059F40E940E
:100B0000F10164EF71E080E090E00E94D6040E9461
:100B100000050CC0823051F40E94470364EF71E07D
:100B200080E090E00E94D6040E940005809187003A
:100B30008F5F809387001092770010927800109258
:100B4000790010927A008091880083BD02C08FEFF7
:100B500083BDFF91EF91BF91AF919F918F917F9155
:100B60006F915F914F913F912F910F900FBE0F901A
:100B70001F9018950E942E0688F09F5798F0B92F65
:100B80009927B751B0F0E1F0660F771F881F991FC2
:100B90001AF0BA95C9F714C0B13091F00E94480616
:100BA000B1E008950C944806672F782F8827B85F26
:100BB00039F0B93FCCF3869577956795B395D9F71A
:100BC0003EF490958095709561957F4F8F4F9F4F24
:100BD0000895E89409C097FB3EF490958095709530
:100BE00061957F4F8F4F9F4F9923A9F0F92F96E979
:100BF000BB279395F695879577956795B795F111EE
:100C0000F8CFFAF4BB0F11F460FF1BC06F5F7F4F8A
:100C10008F4F9F4F16C0882311F096E911C077239C
:100C200021F09EE8872F762F05C0662371F096E8A5
:100C3000862F70E060E02AF09A95660F771F881F74
:100C4000DAF7880F9695879597F9089557FD90588C
:100C5000440F551F59F05F3F71F04795880F97FB80
:100C6000991F61F09F3F79F087950895121613063A
:100C70001406551FF2CF4695F1DF08C01616170669
:100C80001806991FF1CF869571056105089408959E
:100C9000E894BB2766277727CB0197F908950E9430
:100CA00062060C94D3060E94C50638F00E94CC065A
:100CB00020F0952311F00C94BC060C94C20611246C
:100CC0000C9449060E94260670F3959FC1F3950F78
:100CD00050E0551F629FF001729FBB27F00DB11DC0
:100CE000639FAA27F00DB11DAA1F649F6627B00D50
:100CF000A11D661F829F2227B00DA11D621F739F39
:100D0000B00DA11D621F839FA00D611D221F749F46
:100D10003327A00D611D231F849F600D211D822F8D
:100D2000762F6A2F11249F5750409AF0F1F08823B4
:100D30004AF0EE0FFF1FBB1F661F771F881F9150E1
:100D40005040A9F79E3F510580F00C94BC060C94CE
:100D500049065F3FE4F3983ED4F38695779567950F
:100D6000B795F795E7959F5FC1F7FE2B880F911D0B
:100D70009695879597F9089597F99F6780E870E0B1
:100D800060E008959FEF80EC089500240A94161601
:100D9000170618060906089500240A941216130669
:100DA000140605060895092E0394000C11F48823F7
:100DB00052F0BB0F40F4BF2B11F460FF04C06F5F13
:100DC0007F4F8F4F9F4F0895A1E21A2EAA1BBB1B86
:100DD000FD010DC0AA1FBB1FEE1FFF1FA217B30707
:100DE000E407F50720F0A21BB30BE40BF50B661F1D
:100DF000771F881F991F1A9469F7609570958095E1
:100E000090959B01AC01BD01CF0108950E9411078F
:100E1000A59F900DB49F900DA49F800D911D11244E
:100E20000895A29FB001B39FC001A39F700D811DC3
:100E30001124911DB29F700D811D1124911D0895E3
:040E4000F894FFCF54
:100E44003C3C3C3C3C3C3C3C3C3C4A3C3F065B4FD1
:060E5400666D7D077F6F53
:00000001FF
