S0140000416D69745F50726F6A6563742E737265634F
S11300000C942A000C94BC020C94D1020C9413039B
S11300100C9407060C949C050C9447000C94470020
S11300200C9447000C9447000C9414050C947F0422
S11300300C9447000C9447000C9447000C94470020
S11300400C9447000C9447000C9447000C94470010
S11300500C94470011241FBECFE5D8E0DEBFCDBF0E
S113006010E0A0E6B0E0E0E3FFE002C005900D92EE
S1130070AA36B107D9F720E0AAE6B0E001C01D9284
S1130080A639B207E1F70E94A9020C9496070C94D2
S113009000008FB780688FBF86B1877F86B987B12C
S11300A08F71806487B986B1876286B980B78F7192
S11300B080BF86B1806886B9089597B1987F892BEF
S11300C087B986B1806486B9349BFECF84B195B17B
S11300D008956091950080E090E00E9450020E9493
S11300E041040E945F050E9449000E9467030E9428
S11300F055030E9492020E9463020E9472020E94AF
S113010082028CE3809395006CE380E090E00E948F
S113011050020E94790310926A0008950E947B04A1
S11301200E9498050E9422040E949E020E9473036A
S11301300E94610380916A008823E1F308950E947C
S11301402D0480E090E00E945C028093950064E6B8
S113015070E080E090E00E944C040E9476042091BC
S11301608A0030E08091950090E0AC01455051093F
S113017024173507D4F468EE73E080E090E00E9421
S11301806A050E9494050E9461030E946D0302C0E7
S11301900E94DE0380918A00909195008917F0F502
S11301A090916A009130A1F3089505968217930700
S11301B0A4F40E9498020E945B030E94730302C08D
S11301C00E94DE0380918A0090919500981730F583
S11301D090916A009130A1F308950E9498050E94BD
S11301E061030E9473030E949E0202C00E94DE0308
S11301F080918A00482F50E02091950030E0B901A9
S113020065507109461757074CF02B5F3F4F241771
S1130210350724F090916A00913041F3089568EE17
S113022073E080E090E00E946A050E94940504C097
S1130230809195000E94DE0380916A008230C1F3B0
S11302400895BC0190E020E030E007C0FB01E90F15
S1130250F11D4081240F311D9F5F9A30B8F3ADEC3E
S1130260BCEC0E947C079695879596958795969504
S113027087950895442319F04130C9F108958130D8
S113028091F028F08230D9F0833029F108952AB30F
S113029081E090E002C0880F991F6A95E2F780958B
S11302A082238ABB089527B381E090E002C0880FBF
S11302B0991F6A95E2F78095822387BB089524B33A
S11302C081E090E002C0880F991F6A95E2F780955B
S11302D0822384BB089521B381E090E002C0880F9B
S11302E0991F6A95E2F78095822381BB0895813036
S11302F089F028F08230C9F0833011F108952AB3CF
S113030081E090E002C0880F991F6A95E2F7822B82
S11303108ABB089527B381E090E002C0880F991F3B
S11303206A95E2F7822B87BB089524B381E090E0BD
S113033002C0880F991F6A95E2F7822B84BB089547
S113034021B381E090E002C0880F991F6A95E2F71B
S1130350822B81BB0895442319F04130C9F10895DB
S1130360813091F028F08230D9F0833029F108955A
S11303702BB381E090E002C0880F991F6A95E2F7E1
S1130380809582238BBB089528B381E090E002C05E
S1130390880F991F6A95E2F78095822388BB089598
S11303A025B381E090E002C0880F991F6A95E2F7B7
S11303B08095822385BB089522B381E090E002C03A
S11303C0880F991F6A95E2F78095822382BB08956E
S11303D0813089F028F08230C9F0833011F108951A
S11303E02BB381E090E002C0880F991F6A95E2F771
S11303F0822B8BBB089528B381E090E002C0880F64
S1130400991F6A95E2F7822B88BB089525B381E092
S113041090E002C0880F991F6A95E2F7822B85BB92
S1130420089522B381E090E002C0880F991F6A9575
S1130430E2F7822B82BB0895813089F028F0823064
S1130440C9F0833011F108952BB381E090E002C02C
S1130450880F991F6A95E2F782278BBB089528B30A
S113046081E090E002C0880F991F6A95E2F7822725
S113047088BB089525B381E090E002C0880F991FDE
S11304806A95E2F7822785BB089522B381E090E064
S113049002C0880F991F6A95E2F7822782BB0895EC
S11304A0E199FECF6DBB8EBB9FBB8CB384608CBBCC
S11304B08CB382608CBB08958EBB9FBB8CB3816070
S11304C08CBB8DB308958FB780688FBF8BB7806462
S11304D08BBF40E062E083E00E943A0185B783600D
S11304E085BF08958FB780688FBF8BB780688BBF37
S11304F040E063E083E00E943A0185B7807F836037
S113050085BF08958FB780688FBF8BB780628BBF1C
S113051040E062E081E00E943A0184B78E7B816012
S113052084BF089541E060E081E00E943A010895AB
S113053041E060E081E00E94AB01089540E060E0AA
S113054081E00E94AB01089560E081E00E941C02FA
S113055008950E94690080916A00813021F030F092
S1130560823039F0F8CF0E949F00F5CF0E948E00B0
S1130570F2CF0E940F01EFCF1F920F920FB60F928E
S113058011248F939F9381E090916A00911180E0F0
S113059080936A009F918F910F900FBE0F901F90D0
S11305A018951F920F920FB60F9211242F933F9319
S11305B04F935F936F937F938F939F93AF93BF9367
S11305C0EF93FF9380916A0081508230D8F482E0E7
S11305D080936A00809195008B5F809395008C34A2
S11305E018F08BE4809395006091950080E090E092
S11305F00E94500268E873E180E090E00E944C049D
S11306000E947604FF91EF91BF91AF919F918F91DA
S11306107F916F915F914F913F912F910F900FBEFA
S11306200F901F9018951F920F920FB60F921124DE
S11306302F933F934F935F936F937F938F939F93E6
S1130640AF93BF93EF93FF9380916A008150823000
S1130650D8F482E080936A0080919500855080935D
S11306609500833218F483E280939500609195009D
S113067080E090E00E94500268E873E180E090E03E
S11306800E944C040E947604FF91EF91BF91AF91B8
S11306909F918F917F916F915F914F913F912F9196
S11306A00F900FBE0F901F90189541E065E081E018
S11306B00E943A01089541E065E081E00E94AB01A7
S11306C0089540E065E081E00E94AB01089541E0B7
S11306D064E081E00E943A01089541E064E081E031
S11306E00E94AB01089540E064E081E00E94AB0108
S11306F0089541E060E082E00E943A0141E061E057
S113070082E00E943A0141E062E082E00E943A0104
S113071041E063E082E00E943A0141E064E082E06B
S11307200E943A0141E065E082E00E943A0141E022
S113073066E082E00E943A0141E061E083E00E94C9
S11307403A0141E060E083E00E943A0141E066E062
S113075083E00E943A0141E060E082E00E94AB0144
S113076041E061E082E00E94AB0141E062E082E0AE
S11307700E94AB0141E063E082E00E94AB0141E0F2
S113078064E082E00E943A0141E065E082E00E9478
S11307903A0141E066E082E00E943A0141E061E012
S11307A083E00E94AB0141E060E083E00E94AB0182
S11307B041E066E083E00E94AB010895CF93843664
S11307C008F080E0EDEC8E9FE12D11249E2F96958C
S11307D096959695990F292F220F220F920F891B18
S11307E0CE2FC695C695C695E82FF0E0E05AFF4F88
S11307F0808185BB40E061E083E00E94AB0141E081
S113080060E083E00E94AB018FE19EE40197F1F781
S113081000C00000EC2FF0E0E05AFF4F808185BB60
S113082041E061E083E00E94AB0140E060E083E0EE
S11308300E94AB018FE19EE40197F1F700C0000034
S1130840CF91089541E061E083E00E94AB0141E073
S113085060E083E00E94AB01089540E061E083E042
S11308600E94AB0140E060E083E00E94AB01089588
S113087061E083E00E941C0260E083E00E941C02AD
S113088008958FB780688FBF89B78C7F816089BFD7
S113089083B7877B83BF08950F931F939B01AC019C
S11308A0A8EEB3E00E948B070E94810620E030E0AE
S11308B040E85CE30E94E7060E945206662339F092
S11308C0072F182F292F33270F5F1F4F04C0072F1F
S11308D0182F292F332710938900009388006195DE
S11308E06093850062BF1F910F91089583B7887F3D
S11308F0856083BF089583B7887F83BF08951F925F
S11309000F920FB60F9211242F933F934F935F933F
S11309106F937F938F939F93AF93BF93CF93DF9303
S1130920EF93FF938091780090917900A0917A00E1
S1130930B0917B000196A11DB11D80937800909326
S11309407900A0937A00B0937B0040918800509185
S1130950890060E070E084179507A607B70709F0DF
S113096050C080916A00823021F481E080936A0053
S113097038C08130B1F5C09177008DECC89F812DCE
S11309801124869586958695880F982F990F990F2F
S1130990890FC81BD0E080E00E945D00BC0180E0AC
S11309A090E00E94810620E030E04AEF5EE30E947E
S11309B0E7060E945206C557DF4F6883809177008F
S11309C08F5F809377008BE890E00E9421018093F1
S11309D08A0064E670E080E090E00E944C040E948B
S11309E07604809183008F5F809383001092780057
S11309F01092790010927A0010927B008091850009
S1130A0082BFFF91EF91DF91CF91BF91AF919F9101
S1130A108F917F916F915F914F913F912F910F90A3
S1130A200FBE0F901F9018951F920F920FB60F9242
S1130A3011244F935F936F937F938F939F93AF93FF
S1130A40BF938091730090917400A0917500B09150
S1130A5076000196A11DB11D8093730090937400DC
S1130A60A0937500B0937600409186005091870062
S1130A7060E070E084179507A607B70789F48091B2
S1130A8083008F5F80938300109273001092740030
S1130A901092750010927600809184008CBF02C081
S1130AA08FEF8CBFBF91AF919F918F917F916F9189
S1130AB05F914F910F900FBE0F901F9018958FB7B5
S1130AC080688FBF89B78F73806489BF85B5877B42
S1130AD085BD08950F931F939B01AC01A8EEB3E06D
S1130AE00E948B070E94810620E030E040E85CE32E
S1130AF00E94E7060E945206662339F0072F182F3A
S1130B00292F33270F5F1F4F04C0072F182F292FBA
S1130B1033271093820000938100619560937E00D7
S1130B2064BD1F910F91089585B5876085BD0895B3
S1130B3085B5887F85BD08951F920F920FB60F92D9
S1130B4011242F933F934F935F936F937F938F93CE
S1130B509F93AF93BF93EF93FF9380916F00909116
S1130B607000A0917100B09172000196A11DB11D99
S1130B7080936F0090937000A0937100B093720003
S1130B80409181005091820060E070E084179507E5
S1130B90A607B70759F580916A00813059F40E947D
S1130BA0A40268EE73E080E090E00E946A050E946F
S1130BB094050CC0823051F40E94380468EE73E04E
S1130BC080E090E00E946A050E94940580917C0078
S1130BD08F5F80937C0010926F00109270001092CF
S1130BE071001092720080917E0084BDFF91EF919C
S1130BF0BF91AF919F918F917F916F915F914F9131
S1130C003F912F910F900FBE0F901F9018951F9238
S1130C100F920FB60F9211244F935F936F937F93AC
S1130C208F939F93AF93BF9380916B0090916C00CF
S1130C30A0916D00B0916E000196A11DB11D80932D
S1130C406B0090936C00A0936D00B0936E00409184
S1130C507F005091800060E070E084179507A6073C
S1130C60B70789F480917C008F5F80937C00109299
S1130C706B0010926C0010926D0010926E008091C7
S1130C807D0083BD02C08FEF83BDBF91AF919F9163
S1130C908F917F916F915F914F910F900FBE0F9045
S1130CA01F9018950E94C60688F09F5798F0B92F98
S1130CB09927B751B0F0E1F0660F771F881F991F8D
S1130CC01AF0BA95C9F714C0B13091F00E94E00649
S1130CD0B1E008950C94E006672F782F8827B85F59
S1130CE039F0B93FCCF3869577956795B395D9F7E5
S1130CF03EF490958095709561957F4F8F4F9F4FEF
S1130D000895E89409C097FB3EF4909580957095FA
S1130D1061957F4F8F4F9F4F9923A9F0F92F96E943
S1130D20BB279395F695879577956795B795F111B8
S1130D30F8CFFAF4BB0F11F460FF1BC06F5F7F4F55
S1130D408F4F9F4F16C0882311F096E911C0772367
S1130D5021F09EE8872F762F05C0662371F096E870
S1130D60862F70E060E02AF09A95660F771F881F3F
S1130D70DAF7880F9695879597F9089557FD905857
S1130D80440F551F59F05F3F71F04795880F97FB4B
S1130D90991F61F09F3F79F0879508951216130605
S1130DA01406551FF2CF4695F1DF08C01616170634
S1130DB01806991FF1CF8695710561050894089569
S1130DC0E894BB2766277727CB0197F908950E94FB
S1130DD0FA060C946B070E945D0738F00E946407C2
S1130DE020F0952311F00C9454070C945A07112405
S1130DF00C94E1060E94BE0670F3959FC1F3950F13
S1130E0050E0551F629FF001729FBB27F00DB11D8A
S1130E10639FAA27F00DB11DAA1F649F6627B00D1A
S1130E20A11D661F829F2227B00DA11D621F739F03
S1130E30B00DA11D621F839FA00D611D221F749F11
S1130E403327A00D611D231F849F600D211D822F58
S1130E50762F6A2F11249F5750409AF0F1F088237F
S1130E604AF0EE0FFF1FBB1F661F771F881F9150AC
S1130E705040A9F79E3F510580F00C9454070C9400
S1130E80E1065F3FE4F3983ED4F386957795679542
S1130E90B795F795E7959F5FC1F7FE2B880F911DD6
S1130EA09695879597F9089597F99F6780E870E07C
S1130EB060E008959FEF80EC089500240A941616CC
S1130EC0170618060906089500240A941216130634
S1130ED0140605060895092E0394000C11F48823C2
S1130EE052F0BB0F40F4BF2B11F460FF04C06F5FDE
S1130EF07F4F8F4F9F4F0895A29FB001B39FC001B2
S1130F00A39F700D811D1124911DB29F700D811D31
S1130F101124911D08950E947C07A59F900DB49FF4
S1130F20900DA49F800D911D11240895F894FFCF76
S10D0F303F065B4F666D7D077F6F7F
S9030000FC
