:100000000C942A000C94AC020C94C1020C94F602DD
:100010000C945E050C9416050C9447000C94470054
:100020000C9447000C9447000C943C040C94F4038B
:100030000C9447000C9447000C9447000C94470024
:100040000C9447000C9447000C9447000C94470014
:100050000C94470011241FBECFE5D8E0DEBFCDBF12
:1000600010E0A0E6B0E0ECE4FFE002C005900D92E5
:10007000A236B107D9F720E0A2E6B0E001C01D9298
:10008000AC38B207E1F70E9499020C94A4070C94D3
:1000900000008FB780688FBF86B1877F86B987B130
:1000A0008F71806487B986B1876286B980B78F7196
:1000B00080BF86B1806886B9089597B1987F892BF3
:1000C00087B986B1806486B9349BFECF84B195B17F
:1000D00008950E94B6030E94D8040E9449000E941D
:1000E0003D030E942B030E9482020E9453020E9441
:1000F00062020E9472026091600080E095E00E94BE
:1001000040021092810008950E94F0030E9412059F
:100110000E9497030E948E020E9449030E943703A7
:10012000809181008823E1F308950E94A20380E07A
:1001300095E00E944C028093600064E670E080E0ED
:1001400090E00E94C1030E94EB032091800030E008
:100150008091600090E0AC014550510924173507AB
:10016000ACF40E9437030E9443030E94880202C03D
:100170000E944F038091800090916000891708F0E1
:100180003FC090918100913099F3089505968217B0
:100190009307D4F464EF71E080E090E00E94E404FF
:1001A0000E940E050E9431030E94490302C00E9472
:1001B0004F038091800090916000981708F590910E
:1001C00081009130A1F308950E9412050E94370327
:1001D0000E9449030E948E022091800030E08091AD
:1001E000600090E0AC01455051092417350744F0F8
:1001F00005968217930724F080918100813061F386
:10020000089568E873E180E090E00E94C1030E94D5
:10021000EB0364EF71E080E090E00E94E4040E9450
:100220000E05809181008230E1F30895AC0190E0E9
:1002300020E006C0FA01E90FF11D3081230F9F5F16
:100240009A30C0F38DEC289F812D112486958695D8
:1002500086950895442319F04130C9F108958130FD
:1002600091F028F08230D9F0833029F108952AB333
:1002700081E090E002C0880F991F6A95E2F78095AF
:1002800082238ABB089527B381E090E002C0880FE3
:10029000991F6A95E2F78095822387BB089524B35E
:1002A00081E090E002C0880F991F6A95E2F780957F
:1002B000822384BB089521B381E090E002C0880FBF
:1002C000991F6A95E2F78095822381BB089581305A
:1002D00089F028F08230C9F0833011F108952AB3F3
:1002E00081E090E002C0880F991F6A95E2F7822BA7
:1002F0008ABB089527B381E090E002C0880F991F60
:100300006A95E2F7822B87BB089524B381E090E0E1
:1003100002C0880F991F6A95E2F7822B84BB08956B
:1003200021B381E090E002C0880F991F6A95E2F73F
:10033000822B81BB0895442319F04130C9F10895FF
:10034000813091F028F08230D9F0833029F108957E
:100350002BB381E090E002C0880F991F6A95E2F705
:10036000809582238BBB089528B381E090E002C082
:10037000880F991F6A95E2F78095822388BB0895BC
:1003800025B381E090E002C0880F991F6A95E2F7DB
:100390008095822385BB089522B381E090E002C05E
:1003A000880F991F6A95E2F78095822382BB089592
:1003B000813089F028F08230C9F0833011F108953E
:1003C0002BB381E090E002C0880F991F6A95E2F795
:1003D000822B8BBB089528B381E090E002C0880F88
:1003E000991F6A95E2F7822B88BB089525B381E0B7
:1003F00090E002C0880F991F6A95E2F7822B85BBB7
:10040000089522B381E090E002C0880F991F6A9599
:10041000E2F7822B82BB0895813089F028F0823088
:10042000C9F0833011F108952BB381E090E002C050
:10043000880F991F6A95E2F782278BBB089528B32E
:1004400081E090E002C0880F991F6A95E2F7822749
:1004500088BB089525B381E090E002C0880F991F02
:100460006A95E2F7822785BB089522B381E090E088
:1004700002C0880F991F6A95E2F7822782BB089510
:10048000E199FECF6DBB8EBB9FBB8CB384608CBBF0
:100490008CB382608CBB08958EBB9FBB8CB3816094
:1004A0008CBB8DB308958FB780688FBF8BB7806486
:1004B0008BBF40E062E083E00E942A0185B7836041
:1004C00085BF08958FB780688FBF8BB780688BBF5B
:1004D00040E063E083E00E942A0185B7807F83606B
:1004E00085BF08958FB780688FBF8BB780628BBF41
:1004F00040E062E081E00E942A0184B78E7B816047
:1005000084BF089541E060E081E00E942A010895DF
:1005100041E060E081E00E949B01089540E060E0DE
:1005200081E00E949B01089560E081E00E940C023E
:1005300008950E94690080918100813021F030F09F
:10054000823039F0F8CF0E949500F5CF0E948400E8
:10055000F2CF0E940101EFCF1F920F920FB60F92C0
:1005600011248F939F9381E090918100911180E0FD
:10057000809381009F918F910F900FBE0F901F90DD
:1005800018951F920F920FB60F9211242F933F933D
:100590004F935F936F937F938F939F93AF93BF938B
:1005A000EF93FF9382E080938100809160008B5FE6
:1005B000809360008C3418F08BE48093600060912D
:1005C000600080E095E00E944002FF91EF91BF91B2
:1005D000AF919F918F917F916F915F914F913F91DB
:1005E0002F910F900FBE0F901F9018951F920F9292
:1005F0000FB60F9211242F933F934F935F936F93F6
:100600007F938F939F93AF93BF93EF93FF9382E07A
:1006100080938100809160008550809360008332D8
:1006200018F483E2809360006091600080E095E0C0
:100630000E944002FF91EF91BF91AF919F918F91E6
:100640007F916F915F914F913F912F910F900FBECE
:100650000F901F90189541E065E081E00E942A010B
:10066000089541E065E081E00E949B01089540E02B
:1006700065E081E00E949B01089541E064E081E033
:100680000E942A01089541E064E081E00E949B01FC
:10069000089540E064E081E00E949B010895CF93BB
:1006A000843608F080E09DEC899F912D1124292F3C
:1006B000269526952695220F322F330F330F230FC1
:1006C000821BC92FC695C695C69530E1839FC00190
:1006D00011249BB39F70892B8BBB40E062E081E0CB
:1006E0000E949B0141E061E081E00E949B018FE15B
:1006F0009EE40197F1F700C0000020E1C29FC00115
:1007000011249BB39F70892B8BBB41E062E081E099
:100710000E949B0140E061E081E00E949B018FE12B
:100720009EE40197F1F700C00000CF91089540E0EA
:1007300062E081E00E949B0140E061E081E00E9474
:100740009B01089541E062E081E00E949B0141E04D
:1007500061E081E00E949B01089562E081E00E94D7
:100760000C0261E081E00E940C0208958FB780685E
:100770008FBF89B78C7F826089BF83B7877B83BF38
:1007800008950F931F939B01AC01A8EEB3E00E9464
:100790008A070E946D0620E030E040E85CE30E949A
:1007A000FB060E943E06662339F0072F182F292FDB
:1007B00033270F5F1F4F04C0072F182F292F332710
:1007C00010937F0000937E00619560937B0062BF71
:1007D0001F910F91089583B7887F856083BF089527
:1007E00083B7887F83BF08951F920F920FB60F9231
:1007F00011244F935F936F937F938F939F93AF9346
:10080000BF9380916E0090916F00A0917000B091A5
:1008100071000196A11DB11D80936E0090936F0031
:10082000A0937000B093710040917E0050917F00C2
:1008300060E070E084179507A607B70781F4809100
:1008400079008F5F8093790010926E0010926F0094
:10085000109270001092710080917B0082BFBF9156
:10086000AF919F918F917F916F915F914F910F9079
:100870000FBE0F901F9018951F920F920FB60F92F8
:100880001124CF92DF92EF92FF920F931F932F9339
:100890003F934F935F936F937F938F939F93AF9308
:1008A000BF93EF93FF9380916A0090916B00A091AA
:1008B0006C00B0916D000196A11DB11D80936A007E
:1008C00090936B00A0936C00B0936D0000917C003E
:1008D00010917D0020E030E080179107A207B30758
:1008E00009F04DC020918100223021F481E08093F5
:1008F000810034C0213091F5BC01CD012AE030E007
:1009000040E050E00E9468076B017C0180E00E949B
:100910005D00BC0180E090E00E946D0620E030E0C8
:1009200040E854E40E94FB062AE037ED43E25CE332
:100930000E94CC050E943E06F601EE57FF4F6083F1
:1009400082E890E00E9416018093800064E670E0E7
:1009500080E090E00E94C1030E94EB038091790047
:100960008F5F8093790010926A0010926B00109252
:100970006C0010926D0080917A008CBF02C08FEFE6
:100980008CBFFF91EF91BF91AF919F918F917F911C
:100990006F915F914F913F912F911F910F91FF9018
:1009A000EF90DF90CF900F900FBE0F901F90189593
:1009B0008FB780688FBF89B78F73806889BF85B50F
:1009C000877B886085BD08950F931F939B01AC01C1
:1009D000A8EEB3E00E948A070E946D0620E030E096
:1009E00040E85CE30E94FB060E943E06662339F065
:1009F000072F182F292F33270F5F1F4F04C0072FF2
:100A0000182F292F3327109376000093750061501B
:100A10006093730063BD1F910F91089585B5876042
:100A200085BD089585B5887F85BD08951F920F9275
:100A30000FB60F9211244F935F936F937F938F9311
:100A40009F93AF93BF938091660090916700A091B0
:100A50006800B09169000196A11DB11D80936600E8
:100A600090936700A0936800B0936900409177006D
:100A70005091780060E070E084179507A607B707EB
:100A800081F4809172008F5F8093720010926600F3
:100A900010926700109268001092690080917400B3
:100AA00084BDBF91AF919F918F917F916F915F9125
:100AB0004F910F900FBE0F901F9018951F920F929D
:100AC0000FB60F9211242F933F934F935F936F9321
:100AD0007F938F939F93AF93BF93EF93FF938091F7
:100AE000620090916300A0916400B091650001964E
:100AF000A11DB11D8093620090936300A0936400D8
:100B0000B0936500409175005091760060E070E010
:100B100084179507A607B70761F58091810081309A
:100B200059F40E94940264EF71E080E090E00E942A
:100B3000E4040E940E050CC0823051F40E94AD0303
:100B400064EF71E080E090E00E94E4040E940E05F2
:100B5000809172008F5F80937200109262001092F9
:100B6000630010926400109265008091730083BD51
:100B700002C08FEF83BDFF91EF91BF91AF919F9125
:100B80008F917F916F915F914F913F912F910F9036
:100B90000FBE0F901F9018950E94E0050C94C1069F
:100BA0000E94BA0658F00E94B30640F029F45F3F55
:100BB00029F00C94AA0651110C94F5060C94B00679
:100BC0000E94D20668F39923B1F3552391F3951B44
:100BD000550BBB27AA2762177307840738F09F5F5E
:100BE0005F4F220F331F441FAA1FA9F335D00E2ECB
:100BF0003AF0E0E832D091505040E695001CCAF738
:100C00002BD0FE2F29D0660F771F881FBB1F2617FA
:100C100037074807AB07B0E809F0BB0B802DBF01D1
:100C2000FF2793585F4F3AF09E3F510578F00C94A0
:100C3000AA060C94F5065F3FE4F3983ED4F386953C
:100C400077956795B795F7959F5FC9F7880F911DC1
:100C50009695879597F90895E1E0660F771F881FAD
:100C6000BB1F621773078407BA0720F0621B730B60
:100C7000840BBA0BEE1F88F7E09508950E94DA0600
:100C800088F09F5798F0B92F9927B751B0F0E1F04D
:100C9000660F771F881F991F1AF0BA95C9F714C0FD
:100CA000B13091F00E94F406B1E008950C94F4067E
:100CB000672F782F8827B85F39F0B93FCCF3869536
:100CC00077956795B395D9F73EF490958095709593
:100CD00061957F4F8F4F9F4F0895E89409C097FB10
:100CE0003EF490958095709561957F4F8F4F9F4F03
:100CF0009923A9F0F92F96E9BB279395F695879547
:100D000077956795B795F111F8CFFAF4BB0F11F409
:100D100060FF1BC06F5F7F4F8F4F9F4F16C08823B0
:100D200011F096E911C0772321F09EE8872F762FE6
:100D300005C0662371F096E8862F70E060E02AF027
:100D40009A95660F771F881FDAF7880F9695879513
:100D500097F9089597F99F6780E870E060E008953B
:100D60009FEF80EC089500240A94161617061806C3
:100D70000906089500240A9412161306140605069F
:100D80000895092E0394000C11F4882352F0BB0F30
:100D900040F4BF2B11F460FF04C06F5F7F4F8F4F93
:100DA0009F4F089557FD9058440F551F59F05F3FCE
:100DB00071F04795880F97FB991F61F09F3F79F07D
:100DC00087950895121613061406551FF2CF4695FF
:100DD000F1DF08C0161617061806991FF1CF869581
:100DE0007105610508940895E894BB276627772765
:100DF000CB0197F908950E940E070C94C1060E943A
:100E0000B30638F00E94BA0620F0952311F00C9436
:100E1000AA060C94B00611240C94F5060E94D20682
:100E200070F3959FC1F3950F50E0551F629FF0013D
:100E3000729FBB27F00DB11D639FAA27F00DB11D56
:100E4000AA1F649F6627B00DA11D661F829F2227DF
:100E5000B00DA11D621F739FB00DA11D621F839F66
:100E6000A00D611D221F749F3327A00D611D231F3C
:100E7000849F600D211D822F762F6A2F11249F578A
:100E800050409AF0F1F088234AF0EE0FFF1FBB1F8D
:100E9000661F771F881F91505040A9F79E3F51054C
:100EA00080F00C94AA060C94F5065F3FE4F3983E9C
:100EB000D4F3869577956795B795F795E7959F5FF6
:100EC000C1F7FE2B880F911D9695879597F9089588
:100ED000A1E21A2EAA1BBB1BFD010DC0AA1FBB1F3E
:100EE000EE1FFF1FA217B307E407F50720F0A21BB0
:100EF000B30BE40BF50B661F771F881F991F1A941D
:100F000069F760957095809590959B01AC01BD0146
:100F1000CF0108950E949507A59F900DB49F900D55
:100F2000A49F800D911D11240895A29FB001B39F2D
:100F3000C001A39F700D811D1124911DB29F700DE2
:0C0F4000811D1124911D0895F894FFCF2D
:020F4C003C0067
:00000001FF
