:100000000C942A000C9456030C9447000C9447005F
:100010000C9447000C9447000C9447000C94470044
:100020000C9447000C9447000C9447000C94D503A3
:100030000C9447000C9447000C9447000C94470024
:100040000C9487030C9447000C9447000C944700D1
:100050000C94470011241FBECFE5D8E0DEBFCDBF12
:1000600010E0A0E6B0E0E6E1FBE002C005900D92F2
:10007000A036B107D9F720E0A0E6B0E001C01D929C
:10008000AA36B207E1F70E940B030C9489050C9481
:1000900000008FB780688FBF86B1886086B987B14E
:1000A0008F71806487B986B1876286B980B78F7196
:1000B00080BF86B1806886B90895442319F0413025
:1000C000C9F10895813091F028F08230D9F0833061
:1000D00029F108952AB381E090E002C0880F991FAA
:1000E0006A95E2F7809582238ABB089527B381E061
:1000F00090E002C0880F991F6A95E2F780958223ED
:1001000087BB089524B381E090E002C0880F991F57
:100110006A95E2F78095822384BB089521B381E03C
:1001200090E002C0880F991F6A95E2F780958223BC
:1001300081BB0895813089F028F08230C9F0833086
:1001400011F108952AB381E090E002C0880F991F51
:100150006A95E2F7822B8ABB089527B381E090E08D
:1001600002C0880F991F6A95E2F7822B87BB08951A
:1001700024B381E090E002C0880F991F6A95E2F7EE
:10018000822B84BB089521B381E090E002C0880FE8
:10019000991F6A95E2F7822B81BB0895442319F0D9
:1001A0004130C9F10895813091F028F08230D9F0C2
:1001B000833029F108952BB381E090E002C0880FCD
:1001C000991F6A95E2F7809582238BBB089528B327
:1001D00081E090E002C0880F991F6A95E2F7809550
:1001E000822388BB089525B381E090E002C0880F88
:1001F000991F6A95E2F78095822385BB089522B303
:1002000081E090E002C0880F991F6A95E2F780951F
:10021000822382BB0895813089F028F08230C9F0B2
:10022000833011F108952BB381E090E002C0880F74
:10023000991F6A95E2F7822B8BBB089528B381E062
:1002400090E002C0880F991F6A95E2F7822B88BB65
:10025000089525B381E090E002C0880F991F6A9548
:10026000E2F7822B85BB089522B381E090E002C0C3
:10027000880F991F6A95E2F7822B82BB089581301F
:1002800089F028F08230C9F0833011F108952BB342
:1002900081E090E002C0880F991F6A95E2F78227FB
:1002A0008BBB089528B381E090E002C0880F991FAE
:1002B0006A95E2F7822788BB089525B381E090E034
:1002C00002C0880F991F6A95E2F7822785BB0895BF
:1002D00022B381E090E002C0880F991F6A95E2F78F
:1002E000822782BB08958FB780688FBF8BB78064E9
:1002F0008BBF40E062E083E00E945D0085B78360D1
:1003000085BF0895CF93C82F40E061E081E00E944F
:10031000CE0040E062E081E00E94CE0040E063E079
:1003200081E00E94CE008BB39C2F907F8F70892B31
:100330008BBB41E063E081E00E94CE008FE99FE04B
:100340000197F1F700C0000040E063E081E00E9407
:10035000CE0020E1C29FC00111249BB39F70892B66
:100360008BBB41E063E081E00E94CE008FE99FE01B
:100370000197F1F700C0000040E063E081E00E94D7
:10038000CE008FE19EE40197F1F700C00000CF910D
:10039000089541E064E080E00E945D0041E065E096
:1003A00080E00E945D0041E066E080E00E945D0028
:1003B00041E067E080E00E945D0041E061E081E0B3
:1003C0000E945D0041E062E081E00E945D0041E04A
:1003D00063E081E00E945D0040E064E080E00E9414
:1003E000CE0040E065E080E00E94CE0040E066E0A4
:1003F00080E00E94CE0040E067E080E00E94CE00F6
:1004000040E061E081E00E94CE0040E062E081E0F7
:100410000E94CE0040E063E081E00E94CE002FEF1A
:1004200080E792E0215080409040E1F700C000005A
:1004300083E30E94820182E30E94820188E20E949B
:10044000820188E00E94820181E00E94820186E0B0
:100450000E9482018CE00E9482010895CF93C82FF0
:1004600041E061E081E00E94CE0040E062E081E096
:100470000E94CE0040E063E081E00E94CE008BB39A
:100480009C2F907F8F70892B8BBB41E063E081E0D4
:100490000E94CE008FE99FE00197F1F700C00000B5
:1004A00040E063E081E00E94CE0020E1C29FC001F5
:1004B00011249BB39F70892B8BBB41E063E081E0EB
:1004C0000E94CE008FE99FE00197F1F700C0000085
:1004D00040E063E081E00E94CE00CF910895CF928A
:1004E000DF92EF92FF921F93CF93DF93EC01892B62
:1004F00019F480E30E942E02DD2334F48DE20E9481
:100500002E02D195C195D109C12CD12C7601C3946D
:1005100020E030E02DC0C901880F991F220F331F42
:10052000220F331F220F331F280F391FCE016AE01D
:1005300070E00E944705280F391F2115310591F4FD
:10054000CC0CDD1CEE1CFF1CD701C601880F991FC7
:10055000AA1FBB1F880F991FAA1FBB1FC80ED91E39
:10056000EA1EFB1ECE016AE070E00E944705EB0127
:10057000209789F610E011C0C9016AE070E00E947E
:100580004705D62FC72F805D0E942E022D2F3C2FAE
:100590002115310511F4960111E0812F90E0281703
:1005A000390751F7DF91CF911F91FF90EF90DF90C6
:1005B000CF900895683208F060E0811102C080E8B1
:1005C00001C080EC860F0E948201089581E00E94A4
:1005D0008201089541E062E082E00E945D0008959A
:1005E00062E082E00E943F01089541E067E082E01E
:1005F0000E945D00089567E082E00E943F01089537
:1006000041E063E083E00E945D00089563E083E0E1
:100610000E943F0108950E9449000E94C9010E9462
:100620009B0360ED77E080E090E00E94A6030E94CB
:10063000D0030E9473010E94EA020E94F5020E9408
:10064000000387B1887F816087B986B1806486B9ED
:100650008091600090916100892BA9F060E080E0BA
:100660000E94DA0280916000909161000E946F0206
:100670002FEF81EE94E0215080409040E1F700C0E0
:1006800000000E94E60260E081E00E94DA028091B0
:10069000660090E00E946F022FEF89EF90E02150FA
:1006A00080409040E1F700C00000D2CF1F920F922F
:1006B0000FB60F9211242F933F934F935F936F9335
:1006C0007F938F939F93AF93BF93EF93FF932FEFFE
:1006D00081EE94E0215080409040E1F700C000009E
:1006E0000E94F0020E94FB020E940603FF91EF911C
:1006F000BF91AF919F918F917F916F915F914F913A
:100700003F912F910F900FBE0F901F9018951F9241
:100710000F920FB60F9211248F939F9384B195B1CE
:1007200090936100809360009F918F910F900FBE16
:100730000F901F9018958FB780688FBF89B78C7FF7
:10074000816089BF83B7877B83BF08950F931F9311
:100750009B01AC01A8EEB3E00E945B050E944C0433
:1007600020E030E040E85CE30E94DA040E941D04CF
:10077000662339F0072F182F292F33270F5F1F4FBC
:1007800004C0072F182F292F3327109369000093D7
:10079000680061956093670062BF1F910F91089593
:1007A00083B7887F856083BF08951F920F920FB62D
:1007B0000F9211244F935F936F937F938F939F9327
:1007C000AF93BF938091620090916300A091640009
:1007D000B09165000196A11DB11D809362009093B8
:1007E0006300A0936400B09365004091680050914D
:1007F000690060E070E084179507A607B70781F4E9
:10080000809166008F5F8093660010926200109264
:10081000630010926400109265008091670082BFAF
:10082000BF91AF919F918F917F916F915F914F9108
:100830000F900FBE0F901F9018950E94B90488F07A
:100840009F5798F0B92F9927B751B0F0E1F0660F94
:10085000771F881F991F1AF0BA95C9F714C0B130D5
:1008600091F00E94D304B1E008950C94D304672F53
:10087000782F8827B85F39F0B93FCCF38695779504
:100880006795B395D9F73EF49095809570956195ED
:100890007F4F8F4F9F4F0895E89409C097FB3EF418
:1008A00090958095709561957F4F8F4F9F4F9923BD
:1008B000A9F0F92F96E9BB279395F695879577953B
:1008C0006795B795F111F8CFFAF4BB0F11F460FFFB
:1008D0001BC06F5F7F4F8F4F9F4F16C0882311F053
:1008E00096E911C0772321F09EE8872F762F05C067
:1008F000662371F096E8862F70E060E02AF09A9502
:10090000660F771F881FDAF7880F9695879597F9F6
:10091000089597F99F6780E870E060E008959FEF81
:1009200080EC089500240A94161617061806090686
:10093000089500240A941216130614060506089555
:10094000092E0394000C11F4882352F0BB0F40F4DD
:10095000BF2B11F460FF04C06F5F7F4F8F4F9F4F1D
:10096000089557FD9058440F551F59F05F3F71F09F
:100970004795880F97FB991F61F09F3F79F0879506
:100980000895121613061406551FF2CF4695F1DF8F
:1009900008C0161617061806991FF1CF869571051F
:1009A000610508940895E894BB2766277727CB0153
:1009B00097F908950E94ED040C94A0040E949204FB
:1009C00038F00E94990420F0952311F00C948904CA
:1009D0000C948F0411240C94D4040E94B10470F37D
:1009E000959FC1F3950F50E0551F629FF001729FD4
:1009F000BB27F00DB11D639FAA27F00DB11DAA1FE3
:100A0000649F6627B00DA11D661F829F2227B00D2F
:100A1000A11D621F739FB00DA11D621F839FA00DBA
:100A2000611D221F749F3327A00D611D231F849F0A
:100A3000600D211D822F762F6A2F11249F57504061
:100A40009AF0F1F088234AF0EE0FFF1FBB1F661FDC
:100A5000771F881F91505040A9F79E3F510580F0A5
:100A60000C9489040C94D4045F3FE4F3983ED4F3CF
:100A7000869577956795B795F795E7959F5FC1F749
:100A8000FE2B880F911D9695879597F9089597FBF2
:100A9000072E16F4009407D077FD09D00E94660552
:100AA00007FC05D03EF4909581959F4F0895709571
:100AB00061957F4F08950E947A05A59F900DB49F80
:100AC000900DA49F800D911D11240895AA1BBB1B9E
:100AD00051E107C0AA1FBB1FA617B70710F0A61B3E
:100AE000B70B881F991F5A95A9F780959095BC015F
:100AF000CD010895A29FB001B39FC001A39F700DC7
:100B0000811D1124911DB29F700D811D1124911D15
:060B10000895F894FFCFE8
:00000001FF
